{
  "contractName": "MToken",
  "abi": [
    {
      "inputs": [
        {
          "internalType": "string",
          "name": "_name",
          "type": "string"
        },
        {
          "internalType": "string",
          "name": "_symbol",
          "type": "string"
        },
        {
          "internalType": "string",
          "name": "_baseUri",
          "type": "string"
        }
      ],
      "stateMutability": "nonpayable",
      "type": "constructor"
    },
    {
      "anonymous": false,
      "inputs": [
        {
          "indexed": true,
          "internalType": "address",
          "name": "account",
          "type": "address"
        },
        {
          "indexed": true,
          "internalType": "address",
          "name": "operator",
          "type": "address"
        },
        {
          "indexed": false,
          "internalType": "bool",
          "name": "approved",
          "type": "bool"
        }
      ],
      "name": "ApprovalForAll",
      "type": "event"
    },
    {
      "anonymous": false,
      "inputs": [
        {
          "indexed": true,
          "internalType": "address",
          "name": "previousOwner",
          "type": "address"
        },
        {
          "indexed": true,
          "internalType": "address",
          "name": "newOwner",
          "type": "address"
        }
      ],
      "name": "OwnershipTransferred",
      "type": "event"
    },
    {
      "anonymous": false,
      "inputs": [
        {
          "indexed": true,
          "internalType": "address",
          "name": "operator",
          "type": "address"
        },
        {
          "indexed": true,
          "internalType": "address",
          "name": "from",
          "type": "address"
        },
        {
          "indexed": true,
          "internalType": "address",
          "name": "to",
          "type": "address"
        },
        {
          "indexed": false,
          "internalType": "uint256[]",
          "name": "ids",
          "type": "uint256[]"
        },
        {
          "indexed": false,
          "internalType": "uint256[]",
          "name": "values",
          "type": "uint256[]"
        }
      ],
      "name": "TransferBatch",
      "type": "event"
    },
    {
      "anonymous": false,
      "inputs": [
        {
          "indexed": true,
          "internalType": "address",
          "name": "operator",
          "type": "address"
        },
        {
          "indexed": true,
          "internalType": "address",
          "name": "from",
          "type": "address"
        },
        {
          "indexed": true,
          "internalType": "address",
          "name": "to",
          "type": "address"
        },
        {
          "indexed": false,
          "internalType": "uint256",
          "name": "id",
          "type": "uint256"
        },
        {
          "indexed": false,
          "internalType": "uint256",
          "name": "value",
          "type": "uint256"
        }
      ],
      "name": "TransferSingle",
      "type": "event"
    },
    {
      "anonymous": false,
      "inputs": [
        {
          "indexed": false,
          "internalType": "string",
          "name": "value",
          "type": "string"
        },
        {
          "indexed": true,
          "internalType": "uint256",
          "name": "id",
          "type": "uint256"
        }
      ],
      "name": "URI",
      "type": "event"
    },
    {
      "inputs": [
        {
          "internalType": "address",
          "name": "account",
          "type": "address"
        },
        {
          "internalType": "uint256",
          "name": "id",
          "type": "uint256"
        }
      ],
      "name": "balanceOf",
      "outputs": [
        {
          "internalType": "uint256",
          "name": "",
          "type": "uint256"
        }
      ],
      "stateMutability": "view",
      "type": "function",
      "constant": true
    },
    {
      "inputs": [
        {
          "internalType": "address[]",
          "name": "accounts",
          "type": "address[]"
        },
        {
          "internalType": "uint256[]",
          "name": "ids",
          "type": "uint256[]"
        }
      ],
      "name": "balanceOfBatch",
      "outputs": [
        {
          "internalType": "uint256[]",
          "name": "",
          "type": "uint256[]"
        }
      ],
      "stateMutability": "view",
      "type": "function",
      "constant": true
    },
    {
      "inputs": [],
      "name": "baseUri",
      "outputs": [
        {
          "internalType": "string",
          "name": "",
          "type": "string"
        }
      ],
      "stateMutability": "view",
      "type": "function",
      "constant": true
    },
    {
      "inputs": [
        {
          "internalType": "address",
          "name": "account",
          "type": "address"
        },
        {
          "internalType": "address",
          "name": "operator",
          "type": "address"
        }
      ],
      "name": "isApprovedForAll",
      "outputs": [
        {
          "internalType": "bool",
          "name": "",
          "type": "bool"
        }
      ],
      "stateMutability": "view",
      "type": "function",
      "constant": true
    },
    {
      "inputs": [],
      "name": "name",
      "outputs": [
        {
          "internalType": "string",
          "name": "",
          "type": "string"
        }
      ],
      "stateMutability": "view",
      "type": "function",
      "constant": true
    },
    {
      "inputs": [],
      "name": "owner",
      "outputs": [
        {
          "internalType": "address",
          "name": "",
          "type": "address"
        }
      ],
      "stateMutability": "view",
      "type": "function",
      "constant": true
    },
    {
      "inputs": [],
      "name": "renounceOwnership",
      "outputs": [],
      "stateMutability": "nonpayable",
      "type": "function"
    },
    {
      "inputs": [
        {
          "internalType": "address",
          "name": "from",
          "type": "address"
        },
        {
          "internalType": "address",
          "name": "to",
          "type": "address"
        },
        {
          "internalType": "uint256[]",
          "name": "ids",
          "type": "uint256[]"
        },
        {
          "internalType": "uint256[]",
          "name": "amounts",
          "type": "uint256[]"
        },
        {
          "internalType": "bytes",
          "name": "data",
          "type": "bytes"
        }
      ],
      "name": "safeBatchTransferFrom",
      "outputs": [],
      "stateMutability": "nonpayable",
      "type": "function"
    },
    {
      "inputs": [
        {
          "internalType": "address",
          "name": "from",
          "type": "address"
        },
        {
          "internalType": "address",
          "name": "to",
          "type": "address"
        },
        {
          "internalType": "uint256",
          "name": "id",
          "type": "uint256"
        },
        {
          "internalType": "uint256",
          "name": "amount",
          "type": "uint256"
        },
        {
          "internalType": "bytes",
          "name": "data",
          "type": "bytes"
        }
      ],
      "name": "safeTransferFrom",
      "outputs": [],
      "stateMutability": "nonpayable",
      "type": "function"
    },
    {
      "inputs": [
        {
          "internalType": "address",
          "name": "operator",
          "type": "address"
        },
        {
          "internalType": "bool",
          "name": "approved",
          "type": "bool"
        }
      ],
      "name": "setApprovalForAll",
      "outputs": [],
      "stateMutability": "nonpayable",
      "type": "function"
    },
    {
      "inputs": [
        {
          "internalType": "bytes4",
          "name": "interfaceId",
          "type": "bytes4"
        }
      ],
      "name": "supportsInterface",
      "outputs": [
        {
          "internalType": "bool",
          "name": "",
          "type": "bool"
        }
      ],
      "stateMutability": "view",
      "type": "function",
      "constant": true
    },
    {
      "inputs": [],
      "name": "symbol",
      "outputs": [
        {
          "internalType": "string",
          "name": "",
          "type": "string"
        }
      ],
      "stateMutability": "view",
      "type": "function",
      "constant": true
    },
    {
      "inputs": [],
      "name": "tokenCount",
      "outputs": [
        {
          "internalType": "uint256",
          "name": "",
          "type": "uint256"
        }
      ],
      "stateMutability": "view",
      "type": "function",
      "constant": true
    },
    {
      "inputs": [
        {
          "internalType": "address",
          "name": "newOwner",
          "type": "address"
        }
      ],
      "name": "transferOwnership",
      "outputs": [],
      "stateMutability": "nonpayable",
      "type": "function"
    },
    {
      "inputs": [
        {
          "internalType": "uint256",
          "name": "amount",
          "type": "uint256"
        }
      ],
      "name": "mint",
      "outputs": [],
      "stateMutability": "nonpayable",
      "type": "function"
    },
    {
      "inputs": [
        {
          "internalType": "uint256",
          "name": "amount",
          "type": "uint256"
        },
        {
          "internalType": "string",
          "name": "_tokenURI",
          "type": "string"
        }
      ],
      "name": "mintWithUri",
      "outputs": [],
      "stateMutability": "nonpayable",
      "type": "function"
    },
    {
      "inputs": [
        {
          "internalType": "enum MToken.Rarity",
          "name": "_rarity",
          "type": "uint8"
        },
        {
          "internalType": "string",
          "name": "_tokenURI",
          "type": "string"
        }
      ],
      "name": "mintByRarity",
      "outputs": [],
      "stateMutability": "nonpayable",
      "type": "function"
    },
    {
      "inputs": [
        {
          "internalType": "uint256",
          "name": "amount",
          "type": "uint256"
        }
      ],
      "name": "mintGold",
      "outputs": [],
      "stateMutability": "nonpayable",
      "type": "function"
    },
    {
      "inputs": [
        {
          "internalType": "uint256",
          "name": "_tokenId",
          "type": "uint256"
        }
      ],
      "name": "uri",
      "outputs": [
        {
          "internalType": "string",
          "name": "",
          "type": "string"
        }
      ],
      "stateMutability": "view",
      "type": "function",
      "constant": true
    }
  ],
  "bytecode": "0x608060405260016006553480156200001657600080fd5b50604051620021b0380380620021b0833981016040819052620000399162000260565b8062000045816200009c565b506200005133620000b5565b82516200006690600490602086019062000107565b5081516200007c90600590602085019062000107565b5080516200009290600790602084019062000107565b5050505062000340565b8051620000b190600290602084019062000107565b5050565b600380546001600160a01b038381166001600160a01b0319831681179093556040519116919082907f8be0079c531659141344cd1fd0a4f28419497f9722a3daafe3b4186f6b6457e090600090a35050565b8280546200011590620002ed565b90600052602060002090601f01602090048101928262000139576000855562000184565b82601f106200015457805160ff191683800117855562000184565b8280016001018555821562000184579182015b828111156200018457825182559160200191906001019062000167565b506200019292915062000196565b5090565b5b8082111562000192576000815560010162000197565b600082601f830112620001be578081fd5b81516001600160401b0380821115620001db57620001db6200032a565b604051601f8301601f19908116603f011681019082821181831017156200020657620002066200032a565b8160405283815260209250868385880101111562000222578485fd5b8491505b8382101562000245578582018301518183018401529082019062000226565b838211156200025657848385830101525b9695505050505050565b60008060006060848603121562000275578283fd5b83516001600160401b03808211156200028c578485fd5b6200029a87838801620001ad565b94506020860151915080821115620002b0578384fd5b620002be87838801620001ad565b93506040860151915080821115620002d4578283fd5b50620002e386828701620001ad565b9150509250925092565b6002810460018216806200030257607f821691505b602082108114156200032457634e487b7160e01b600052602260045260246000fd5b50919050565b634e487b7160e01b600052604160045260246000fd5b611e6080620003506000396000f3fe608060405234801561001057600080fd5b50600436106101205760003560e01c806395d89b41116100ad578063ab850a8511610071578063ab850a8514610245578063c608d9e714610258578063e985e9c51461026b578063f242432a146102a7578063f2fde38b146102ba57610120565b806395d89b41146102065780639abc83201461020e5780639f181b5e14610216578063a0712d681461021f578063a22cb4651461023257610120565b80632eb2c2d6116100f45780632eb2c2d6146101965780634e1273f4146101ab578063715018a6146101cb5780638ad1112d146101d35780638da5cb5b146101e657610120565b8062fdd58e1461012557806301ffc9a71461014b57806306fdde031461016e5780630e89341c14610183575b600080fd5b6101386101333660046116f8565b6102cd565b6040519081526020015b60405180910390f35b61015e6101593660046117ea565b610364565b6040519015158152602001610142565b6101766103b8565b6040516101429190611adc565b610176610191366004611869565b610446565b6101a96101a43660046115b5565b6104c4565b005b6101be6101b9366004611721565b61055b565b6040516101429190611a9b565b6101a96106bd565b6101a96101e1366004611881565b6106f8565b6101ee610785565b6040516001600160a01b039091168152602001610142565b610176610795565b6101766107a2565b61013860065481565b6101a961022d366004611869565b6107af565b6101a96102403660046116be565b610818565b6101a9610253366004611869565b610827565b6101a9610266366004611822565b610872565b61015e610279366004611583565b6001600160a01b03918216600090815260016020908152604080832093909416825291909152205460ff1690565b6101a96102b536600461165b565b6108e0565b6101a96102c8366004611562565b610967565b60006001600160a01b03831661033e5760405162461bcd60e51b815260206004820152602b60248201527f455243313135353a2062616c616e636520717565727920666f7220746865207a60448201526a65726f206164647265737360a81b60648201526084015b60405180910390fd5b506000908152602081815260408083206001600160a01b03949094168352929052205490565b60006001600160e01b03198216636cdb3d1360e11b148061039557506001600160e01b031982166303a24d0760e21b145b806103b057506301ffc9a760e01b6001600160e01b03198316145b90505b919050565b600480546103c590611c92565b80601f01602080910402602001604051908101604052809291908181526020018280546103f190611c92565b801561043e5780601f106104135761010080835404028352916020019161043e565b820191906000526020600020905b81548152906001019060200180831161042157829003601f168201915b505050505081565b60008181526008602052604081208054606092919061046490611c92565b905011156104a8576007600860008481526020019081526020016000206040516020016104929291906119e3565b60405160208183030381529060405290506103b3565b60076104b383610a04565b6040516020016104929291906119ae565b6001600160a01b0385163314806104e057506104e08533610279565b6105475760405162461bcd60e51b815260206004820152603260248201527f455243313135353a207472616e736665722063616c6c6572206973206e6f74206044820152711bdddb995c881b9bdc88185c1c1c9bdd995960721b6064820152608401610335565b6105548585858585610b27565b5050505050565b606081518351146105c05760405162461bcd60e51b815260206004820152602960248201527f455243313135353a206163636f756e747320616e6420696473206c656e677468604482015268040dad2e6dac2e8c6d60bb1b6064820152608401610335565b6000835167ffffffffffffffff8111156105ea57634e487b7160e01b600052604160045260246000fd5b604051908082528060200260200182016040528015610613578160200160208202803683370190505b50905060005b84518110156106b55761067a85828151811061064557634e487b7160e01b600052603260045260246000fd5b602002602001015185838151811061066d57634e487b7160e01b600052603260045260246000fd5b60200260200101516102cd565b82828151811061069a57634e487b7160e01b600052603260045260246000fd5b60209081029190910101526106ae81611cfa565b9050610619565b509392505050565b336106c6610785565b6001600160a01b0316146106ec5760405162461bcd60e51b815260040161033590611bc6565b6106f66000610d20565b565b33610701610785565b6001600160a01b0316146107275760405162461bcd60e51b815260040161033590611bc6565b60016006600082825461073a9190611c1f565b9250508190555061075e336006548460405180602001604052806000815250610d72565b60065460009081526008602090815260409091208251610780928401906113d1565b505050565b6003546001600160a01b03165b90565b600580546103c590611c92565b600780546103c590611c92565b336107b8610785565b6001600160a01b0316146107de5760405162461bcd60e51b815260040161033590611bc6565b6001600660008282546107f19190611c1f565b92505081905550610815336006548360405180602001604052806000815250610d72565b50565b610823338383610e7c565b5050565b33610830610785565b6001600160a01b0316146108565760405162461bcd60e51b815260040161033590611bc6565b6108153360008360405180602001604052806000815250610d72565b3361087b610785565b6001600160a01b0316146108a15760405162461bcd60e51b815260040161033590611bc6565b6001600660008282546108b49190611c1f565b9250508190555061075e336006546108cb85610f5d565b60405180602001604052806000815250610d72565b6001600160a01b0385163314806108fc57506108fc8533610279565b61095a5760405162461bcd60e51b815260206004820152602960248201527f455243313135353a2063616c6c6572206973206e6f74206f776e6572206e6f7260448201526808185c1c1c9bdd995960ba1b6064820152608401610335565b6105548585858585611026565b33610970610785565b6001600160a01b0316146109965760405162461bcd60e51b815260040161033590611bc6565b6001600160a01b0381166109fb5760405162461bcd60e51b815260206004820152602660248201527f4f776e61626c653a206e6577206f776e657220697320746865207a65726f206160448201526564647265737360d01b6064820152608401610335565b61081581610d20565b606081610a2957506040805180820190915260018152600360fc1b60208201526103b3565b8160005b8115610a535780610a3d81611cfa565b9150610a4c9050600a83611c37565b9150610a2d565b60008167ffffffffffffffff811115610a7c57634e487b7160e01b600052604160045260246000fd5b6040519080825280601f01601f191660200182016040528015610aa6576020820181803683370190505b5090505b8415610b1f57610abb600183611c4b565b9150610ac8600a86611d15565b610ad3906030611c1f565b60f81b818381518110610af657634e487b7160e01b600052603260045260246000fd5b60200101906001600160f81b031916908160001a905350610b18600a86611c37565b9450610aaa565b949350505050565b8151835114610b895760405162461bcd60e51b815260206004820152602860248201527f455243313135353a2069647320616e6420616d6f756e7473206c656e677468206044820152670dad2e6dac2e8c6d60c31b6064820152608401610335565b6001600160a01b038416610baf5760405162461bcd60e51b815260040161033590611b37565b3360005b8451811015610cb2576000858281518110610bde57634e487b7160e01b600052603260045260246000fd5b602002602001015190506000858381518110610c0a57634e487b7160e01b600052603260045260246000fd5b602090810291909101810151600084815280835260408082206001600160a01b038e168352909352919091205490915081811015610c5a5760405162461bcd60e51b815260040161033590611b7c565b6000838152602081815260408083206001600160a01b038e8116855292528083208585039055908b16825281208054849290610c97908490611c1f565b9250508190555050505080610cab90611cfa565b9050610bb3565b50846001600160a01b0316866001600160a01b0316826001600160a01b03167f4a39dc06d4c0dbc64b70af90fd698a233a518aa5d07e595d983b8c0526c8f7fb8787604051610d02929190611aae565b60405180910390a4610d18818787878787611143565b505050505050565b600380546001600160a01b038381166001600160a01b0319831681179093556040519116919082907f8be0079c531659141344cd1fd0a4f28419497f9722a3daafe3b4186f6b6457e090600090a35050565b6001600160a01b038416610dd25760405162461bcd60e51b815260206004820152602160248201527f455243313135353a206d696e7420746f20746865207a65726f206164647265736044820152607360f81b6064820152608401610335565b33610dec81600087610de3886112ae565b610554886112ae565b6000848152602081815260408083206001600160a01b038916845290915281208054859290610e1c908490611c1f565b909155505060408051858152602081018590526001600160a01b0380881692600092918516917fc3d58168c5ae7397731d063d5bbf3d657854427343f4c083240f7aacaa2d0f62910160405180910390a461055481600087878787611307565b816001600160a01b0316836001600160a01b03161415610ef05760405162461bcd60e51b815260206004820152602960248201527f455243313135353a2073657474696e6720617070726f76616c20737461747573604482015268103337b91039b2b63360b91b6064820152608401610335565b6001600160a01b03838116600081815260016020908152604080832094871680845294825291829020805460ff191686151590811790915591519182527f17307eab39ab6107e8899845ad3d59bd9653f200f220920489ca2b5937696c31910160405180910390a3505050565b600080826003811115610f8057634e487b7160e01b600052602160045260246000fd5b1415610f8e575060646103b3565b6001826003811115610fb057634e487b7160e01b600052602160045260246000fd5b1415610fbe575060326103b3565b6002826003811115610fe057634e487b7160e01b600052602160045260246000fd5b1415610fee575060196103b3565b600382600381111561101057634e487b7160e01b600052602160045260246000fd5b141561101e575060016103b3565b5060006103b3565b6001600160a01b03841661104c5760405162461bcd60e51b815260040161033590611b37565b3361105c818787610de3886112ae565b6000848152602081815260408083206001600160a01b038a1684529091529020548381101561109d5760405162461bcd60e51b815260040161033590611b7c565b6000858152602081815260408083206001600160a01b038b81168552925280832087850390559088168252812080548692906110da908490611c1f565b909155505060408051868152602081018690526001600160a01b03808916928a821692918616917fc3d58168c5ae7397731d063d5bbf3d657854427343f4c083240f7aacaa2d0f62910160405180910390a461113a828888888888611307565b50505050505050565b6001600160a01b0384163b15610d185760405163bc197c8160e01b81526001600160a01b0385169063bc197c819061118790899089908890889088906004016119f8565b602060405180830381600087803b1580156111a157600080fd5b505af19250505080156111d1575060408051601f3d908101601f191682019092526111ce91810190611806565b60015b61127e576111dd611d6b565b806308c379a0141561121757506111f2611d82565b806111fd5750611219565b8060405162461bcd60e51b81526004016103359190611adc565b505b60405162461bcd60e51b815260206004820152603460248201527f455243313135353a207472616e7366657220746f206e6f6e20455243313135356044820152732932b1b2b4bb32b91034b6b83632b6b2b73a32b960611b6064820152608401610335565b6001600160e01b0319811663bc197c8160e01b1461113a5760405162461bcd60e51b815260040161033590611aef565b604080516001808252818301909252606091600091906020808301908036833701905050905082816000815181106112f657634e487b7160e01b600052603260045260246000fd5b602090810291909101015292915050565b6001600160a01b0384163b15610d185760405163f23a6e6160e01b81526001600160a01b0385169063f23a6e619061134b9089908990889088908890600401611a56565b602060405180830381600087803b15801561136557600080fd5b505af1925050508015611395575060408051601f3d908101601f1916820190925261139291810190611806565b60015b6113a1576111dd611d6b565b6001600160e01b0319811663f23a6e6160e01b1461113a5760405162461bcd60e51b815260040161033590611aef565b8280546113dd90611c92565b90600052602060002090601f0160209004810192826113ff5760008555611445565b82601f1061141857805160ff1916838001178555611445565b82800160010185558215611445579182015b8281111561144557825182559160200191906001019061142a565b50611451929150611455565b5090565b5b808211156114515760008155600101611456565b80356001600160a01b03811681146103b357600080fd5b600082601f830112611491578081fd5b8135602061149e82611bfb565b6040516114ab8282611ccd565b8381528281019150858301838502870184018810156114c8578586fd5b855b858110156114e6578135845292840192908401906001016114ca565b5090979650505050505050565b600082601f830112611503578081fd5b813567ffffffffffffffff81111561151d5761151d611d55565b604051611534601f8301601f191660200182611ccd565b818152846020838601011115611548578283fd5b816020850160208301379081016020019190915292915050565b600060208284031215611573578081fd5b61157c8261146a565b9392505050565b60008060408385031215611595578081fd5b61159e8361146a565b91506115ac6020840161146a565b90509250929050565b600080600080600060a086880312156115cc578081fd5b6115d58661146a565b94506115e36020870161146a565b9350604086013567ffffffffffffffff808211156115ff578283fd5b61160b89838a01611481565b94506060880135915080821115611620578283fd5b61162c89838a01611481565b93506080880135915080821115611641578283fd5b5061164e888289016114f3565b9150509295509295909350565b600080600080600060a08688031215611672578081fd5b61167b8661146a565b94506116896020870161146a565b93506040860135925060608601359150608086013567ffffffffffffffff8111156116b2578182fd5b61164e888289016114f3565b600080604083850312156116d0578182fd5b6116d98361146a565b9150602083013580151581146116ed578182fd5b809150509250929050565b6000806040838503121561170a578182fd5b6117138361146a565b946020939093013593505050565b60008060408385031215611733578182fd5b823567ffffffffffffffff8082111561174a578384fd5b818501915085601f83011261175d578384fd5b8135602061176a82611bfb565b6040516117778282611ccd565b8381528281019150858301838502870184018b1015611794578889fd5b8896505b848710156117bd576117a98161146a565b835260019690960195918301918301611798565b50965050860135925050808211156117d3578283fd5b506117e085828601611481565b9150509250929050565b6000602082840312156117fb578081fd5b813561157c81611e14565b600060208284031215611817578081fd5b815161157c81611e14565b60008060408385031215611834578182fd5b823560048110611842578283fd5b9150602083013567ffffffffffffffff81111561185d578182fd5b6117e0858286016114f3565b60006020828403121561187a578081fd5b5035919050565b60008060408385031215611893578182fd5b82359150602083013567ffffffffffffffff81111561185d578182fd5b6000815180845260208085019450808401835b838110156118df578151875295820195908201906001016118c3565b509495945050505050565b60008151808452611902816020860160208601611c62565b601f01601f19169290920160200192915050565b80546000906002810460018083168061193057607f831692505b602080841082141561195057634e487b7160e01b86526022600452602486fd5b8180156119645760018114611975576119a2565b60ff198616895284890196506119a2565b60008881526020902060005b8681101561199a5781548b820152908501908301611981565b505084890196505b50505050505092915050565b60006119ba8285611916565b83516119ca818360208801611c62565b64173539b7b760d91b9101908152600501949350505050565b6000610b1f6119f28386611916565b84611916565b6001600160a01b0386811682528516602082015260a060408201819052600090611a24908301866118b0565b8281036060840152611a3681866118b0565b90508281036080840152611a4a81856118ea565b98975050505050505050565b6001600160a01b03868116825285166020820152604081018490526060810183905260a060808201819052600090611a90908301846118ea565b979650505050505050565b60006020825261157c60208301846118b0565b600060408252611ac160408301856118b0565b8281036020840152611ad381856118b0565b95945050505050565b60006020825261157c60208301846118ea565b60208082526028908201527f455243313135353a204552433131353552656365697665722072656a656374656040820152676420746f6b656e7360c01b606082015260800190565b60208082526025908201527f455243313135353a207472616e7366657220746f20746865207a65726f206164604082015264647265737360d81b606082015260800190565b6020808252602a908201527f455243313135353a20696e73756666696369656e742062616c616e636520666f60408201526939103a3930b739b332b960b11b606082015260800190565b6020808252818101527f4f776e61626c653a2063616c6c6572206973206e6f7420746865206f776e6572604082015260600190565b600067ffffffffffffffff821115611c1557611c15611d55565b5060209081020190565b60008219821115611c3257611c32611d29565b500190565b600082611c4657611c46611d3f565b500490565b600082821015611c5d57611c5d611d29565b500390565b60005b83811015611c7d578181015183820152602001611c65565b83811115611c8c576000848401525b50505050565b600281046001821680611ca657607f821691505b60208210811415611cc757634e487b7160e01b600052602260045260246000fd5b50919050565b601f8201601f1916810167ffffffffffffffff81118282101715611cf357611cf3611d55565b6040525050565b6000600019821415611d0e57611d0e611d29565b5060010190565b600082611d2457611d24611d3f565b500690565b634e487b7160e01b600052601160045260246000fd5b634e487b7160e01b600052601260045260246000fd5b634e487b7160e01b600052604160045260246000fd5b600060033d111561079257600481823e5160e01c90565b600060443d1015611d9257610792565b6040516003193d81016004833e81513d67ffffffffffffffff8160248401118184111715611dc4575050505050610792565b8285019150815181811115611dde57505050505050610792565b843d8701016020828501011115611dfa57505050505050610792565b611e0960208286010187611ccd565b509094505050505090565b6001600160e01b03198116811461081557600080fdfea26469706673582212203cffd6b067120e3d283478a3084b753395206524061d6328b630666226ea77e064736f6c63430008020033",
  "immutableReferences": {},
  "source": "// SPDX-License-Identifier: MIT\npragma solidity ^0.8.2;\n\nimport \"@openzeppelin/contracts/token/ERC1155/ERC1155.sol\";\nimport \"@openzeppelin/contracts/access/Ownable.sol\";\nimport \"@openzeppelin/contracts/utils/Strings.sol\";\n\n\n/// @title A contract with both Fungible and NON Fungible collection\n/// @author nawab69\n/// @dev \n///     - tokenID 0 is for Fungible token\n///     - Fungible token can be mint by only owner / deployer of this contract by calling mintGold function\n///     - From token ID 1 to ... , All tokens are non Fungible with single or multiple supply\n///     - It can be mint by calling mint Function and the amount in the parameters\n\ncontract MToken is ERC1155, Ownable {\n\n    constructor(\n        string memory _name,\n        string memory _symbol, \n        string memory _baseUri\n        ) ERC1155(_baseUri) \n        {\n        name = _name;\n        symbol = _symbol;\n        baseUri = _baseUri;\n    }\n\n    enum Rarity {\n        COMMON,\n        UNCOMMON,\n        RARE,\n        UNIQUE\n    }\n\n    uint constant GOLD = 0;\n\n    string public name;\n    string public symbol; \n    uint256 public tokenCount = 1;\n    string public baseUri;\n    \n    mapping(uint => string) private tokenURI;\n    \n\n    /// @notice Mint X token of y (amount) supply\n    /// @dev mint NFT token with y amount supply\n    /// @param amount is a parameter of supply\n    function mint(\n        uint256 amount\n        ) public \n        onlyOwner\n    {\n        tokenCount += 1;\n        _mint(msg.sender,\n        tokenCount,\n        amount,\n        \"\");\n    }\n\n    /// @notice Mint X token of y (amount) supply and add custom token URI\n    /// @param amount a parameter with y supply\n    /// @param _tokenURI a parameter of token metadata URI\n    function mintWithUri(\n        uint256 amount, \n        string memory _tokenURI\n        ) public \n        onlyOwner\n    {\n        tokenCount += 1;\n        _mint(msg.sender, \n        tokenCount, \n        amount, \n        \"\");\n        tokenURI[tokenCount] = _tokenURI;\n    }\n\n    /// @notice Mint X token of y (amount) supply and add custom token URI\n    /// @param _rarity a parameter with rarity [0 = common, 1 = uncommon, 2 = rare, 3 = unique]\n    /// @param _tokenURI a parameter of token metadata URI\n    function mintByRarity(\n        Rarity _rarity, \n        string memory _tokenURI\n        ) public \n        onlyOwner\n    {\n        tokenCount += 1;\n        _mint(msg.sender, \n        tokenCount, \n        getSupplyByRarity(_rarity), \n        \"\");\n        tokenURI[tokenCount] = _tokenURI;\n    }\n\n    \n    /// @notice Mint Fungable GOLD\n    /// @dev All Fungable gold's token ID will be 0\n    /// @param amount a parameter of how many gold mint\n    \n    function mintGold(uint256 amount) public onlyOwner \n    {\n        _mint(msg.sender, \n        GOLD, \n        amount, \n        \"\");\n    }\n\n\n\n    /// @notice It will return the token metadata uri by its tokenID\n    /// @dev Explain to a developer any extra details\n    /// @param _tokenId a parameter to get the uri\n    /// @return {string} the return values of URI\n    function uri(\n        uint256 _tokenId\n        ) override \n        public \n        view \n        returns(string memory) \n        {\n        \n        if(bytes(tokenURI[_tokenId]).length > 0){\n            return string(\n                abi.encodePacked(\n                        baseUri,\n                        tokenURI[_tokenId]\n                    )\n            );\n        }else{\n            return string(\n                abi.encodePacked(\n                        baseUri,\n                        Strings.toString(_tokenId),\n                        \".json\"\n                    )\n            );\n        }\n        \n    }\n\n    // geters\n\n    function getSupplyByRarity(\n        Rarity _rarity\n        ) private \n        pure \n        returns(uint)\n        {\n        if(_rarity == Rarity.COMMON){\n            return 100;\n        }else if(_rarity == Rarity.UNCOMMON){\n            return 50;\n        }else if(_rarity == Rarity.RARE){\n            return 25;\n        }else if(_rarity == Rarity.UNIQUE){\n            return 1;\n        }else{\n            return 0;\n        }\n    }\n\n}",
  "sourcePath": "/Users/nawab/Project/blockchain/multitoken/contracts/MToken.sol",
  "compiler": {
    "name": "solc",
    "version": "0.8.2+commit.661d1103.Emscripten.clang"
  },
  "schemaVersion": "3.4.3",
  "updatedAt": "2022-01-02T08:14:01.315Z",
  "networkType": "ethereum",
  "devdoc": {
    "author": "nawab69",
    "details": "     - tokenID 0 is for Fungible token     - Fungible token can be mint by only owner / deployer of this contract by calling mintGold function     - From token ID 1 to ... , All tokens are non Fungible with single or multiple supply     - It can be mint by calling mint Function and the amount in the parameters",
    "kind": "dev",
    "methods": {
      "balanceOf(address,uint256)": {
        "details": "See {IERC1155-balanceOf}. Requirements: - `account` cannot be the zero address."
      },
      "balanceOfBatch(address[],uint256[])": {
        "details": "See {IERC1155-balanceOfBatch}. Requirements: - `accounts` and `ids` must have the same length."
      },
      "isApprovedForAll(address,address)": {
        "details": "See {IERC1155-isApprovedForAll}."
      },
      "mint(uint256)": {
        "details": "mint NFT token with y amount supply",
        "params": {
          "amount": "is a parameter of supply"
        }
      },
      "mintByRarity(uint8,string)": {
        "params": {
          "_rarity": "a parameter with rarity [0 = common, 1 = uncommon, 2 = rare, 3 = unique]",
          "_tokenURI": "a parameter of token metadata URI"
        }
      },
      "mintGold(uint256)": {
        "details": "All Fungable gold's token ID will be 0",
        "params": {
          "amount": "a parameter of how many gold mint"
        }
      },
      "mintWithUri(uint256,string)": {
        "params": {
          "_tokenURI": "a parameter of token metadata URI",
          "amount": "a parameter with y supply"
        }
      },
      "owner()": {
        "details": "Returns the address of the current owner."
      },
      "renounceOwnership()": {
        "details": "Leaves the contract without owner. It will not be possible to call `onlyOwner` functions anymore. Can only be called by the current owner. NOTE: Renouncing ownership will leave the contract without an owner, thereby removing any functionality that is only available to the owner."
      },
      "safeBatchTransferFrom(address,address,uint256[],uint256[],bytes)": {
        "details": "See {IERC1155-safeBatchTransferFrom}."
      },
      "safeTransferFrom(address,address,uint256,uint256,bytes)": {
        "details": "See {IERC1155-safeTransferFrom}."
      },
      "setApprovalForAll(address,bool)": {
        "details": "See {IERC1155-setApprovalForAll}."
      },
      "supportsInterface(bytes4)": {
        "details": "See {IERC165-supportsInterface}."
      },
      "transferOwnership(address)": {
        "details": "Transfers ownership of the contract to a new account (`newOwner`). Can only be called by the current owner."
      },
      "uri(uint256)": {
        "details": "Explain to a developer any extra details",
        "params": {
          "_tokenId": "a parameter to get the uri"
        },
        "returns": {
          "_0": "{string} the return values of URI"
        }
      }
    },
    "title": "A contract with both Fungible and NON Fungible collection",
    "version": 1
  },
  "userdoc": {
    "kind": "user",
    "methods": {
      "mint(uint256)": {
        "notice": "Mint X token of y (amount) supply"
      },
      "mintByRarity(uint8,string)": {
        "notice": "Mint X token of y (amount) supply and add custom token URI"
      },
      "mintGold(uint256)": {
        "notice": "Mint Fungable GOLD"
      },
      "mintWithUri(uint256,string)": {
        "notice": "Mint X token of y (amount) supply and add custom token URI"
      },
      "uri(uint256)": {
        "notice": "It will return the token metadata uri by its tokenID"
      }
    },
    "version": 1
  }
}